:100000000C942E000C944B000C944B000C944B0061
:100010000C944B000C944B000C944B000C944B0034
:100020000C944B000C944B000C944B000C944B0024
:100030000C944B000C944B000C944B000C944B0014
:100040000C944B000C944B000C944B000C944B0004
:100050000C944B000C944B000C944B0011241FBECD
:10006000CFEFD8E0DEBFCDBF11E0A0E0B1E0E8E522
:10007000F9E002C005900D92A030B107D9F721E058
:10008000A0E0B1E001C01D92A231B207E1F70E94E9
:1000900041030C94AA040C940000E2E0F1E086E035
:1000A00090E0918380838BE590E0938382838FE45B
:1000B00090E09583848386E690E0978386838DE63F
:1000C00090E0918780878DE790E09387828787E033
:1000D00090E0958784878FE790E0978786878FE603
:1000E00090E0918B808B0895EF92FF920F931F9376
:1000F000CF93DF93E4E1F1E0DF0188E090E062E09C
:1001000033EF42E051E073E064BB3BB912972C91AE
:1001100028B9EA01288922B986309105BCF02889DE
:1001200025B9DFE729EAC3E0D1502040C040E1F71C
:1001300000C0000074BB5B9ADFE729EAC3E0D1503E
:100140002040C040E1F700C0000032C0833091057C
:10015000CCF4ED012E8125B9DFE729EAC3E0D150C7
:100160002040C040E1F700C000002BB12C602BB94B
:10017000DFE729EAC3E0D1502040C040E1F700C0EA
:10018000000016C0ED012E8125B9DFE729EAC3E0A2
:10019000D1502040C040E1F700C000005B9ADFE78B
:1001A00029EAC3E0D1502040C040E1F700C0000080
:1001B000019708F0A9CF0F2EF8E0EF2EF1E0FF2E07
:1001C000F02D42E051E0E70162E095EF9A0164BB57
:1001D0009BB92297888188B9888185B9D9015096C1
:1001E0008C9182B9BFE779EA83E0B15070408040DA
:1001F000E1F700C000005B9AAFE7B9EA73E0A150F5
:10020000B0407040E1F700C000004C175D07F9F600
:10021000A4E1B1E088E090E016EF31E062E071E047
:1002200003E01BB934BB12972C9122B92C9125B94C
:10023000EB01288928B983309105B4F45C98DFE795
:1002400029EAC3E0D1502040C040E1F700C00000DF
:10025000589A04BBDFE729EAC3E0D1502040C040F0
:10026000E1F700C0000013C0DFE729EAC3E0D15086
:100270002040C040E1F700C00000589ADFE729EABB
:10028000C3E0D1502040C040E1F700C0000001971A
:1002900040F688E090E012E03EED62E071E003E0BD
:1002A00014BB3BB9DB0150962C9125B932972081C4
:1002B00022B986309105C4F0EB01288928B9DFE71F
:1002C00029EAA3E0D1502040A040E1F700C000009F
:1002D00004BB589ABFE7C9EAD3E0B150C040D04050
:1002E000E1F700C000002FC083309105BCF42681E7
:1002F00028B92FE7A9EAB3E02150A040B040E1F7C8
:1003000000C000005D9A04BBCFE7D9EA23E0C150EA
:10031000D0402040E1F700C0000015C0268128B978
:10032000AFE7B9EAC3E0A150B040C040E1F700C078
:10033000000004BBDFE729EAA3E0D1502040A04041
:10034000E1F700C00000019708F0AACF32E02CEEE0
:1003500093E034BB2BB9C2E0EC1AF108F7018081BD
:1003600088B9808182B9FFE769EA73E0F1506040A3
:100370007040E1F700C0000094BB8FE7A9EAB3E04A
:100380008150A040B040E1F700C000004E155F056D
:1003900001F7DF91CF911F910F91FF90EF9008959A
:1003A000CF92DF92FF920F931F93CF93DF93E4E1FD
:1003B000F1E0DF0188E090E063EF32E042E051E0FD
:1003C00073E017EF6BB934BB12972C9128B9EA018F
:1003D000288925B986309105BCF0288922B9DFE744
:1003E00029EAC3E0D1502040C040E1F700C000003E
:1003F00074BB5B9ADFE729EAC3E0D1502040C040DC
:10040000E1F700C0000031C083309105C4F4ED0174
:100410002E8122B9DFE729EAC3E0D1502040C04055
:10042000E1F700C0000074BB1BB9DFE729EAC3E0B5
:10043000D1502040C040E1F700C0000016C0ED01DF
:100440002E8122B9DFE729EAC3E0D1502040C04025
:10045000E1F700C0000074BBDFE729EAC3E0D15038
:100460002040C040E1F700C00000019708F0AACF8B
:1004700085EE8BB9C8E0D1E002E011E0DE0122E0B8
:1004800093E024BB12978C9188B98C9182B93FE795
:1004900049EA83E0315040408040E1F700C000006D
:1004A00094BB3FE749EA83E0315040408040E1F7A8
:1004B00000C00000A017B10721F788E090E06EEDC2
:1004C00032E042E051E073E00F2EFEEFFF2EF02D00
:1004D0006BB934BB3297208122B9DA0150962C9146
:1004E000509725B986309105C4F050962C9128B9C3
:1004F000BFE729EAA3E0B1502040A040E1F700C0E7
:10050000000074BB589ABFE729EAA3E0B15020402D
:10051000A040E1F700C000002FC083309105BCF47B
:10052000268128B9BFE729EAA3E0B1502040A040C6
:10053000E1F700C0000074BBFBB8BFE729EAA3E005
:10054000B1502040A040E1F700C0000015C0268156
:1005500028B9BFE729EAA3E0B1502040A040E1F765
:1005600000C0000074BBBFE729EAA3E0B1502040FF
:10057000A040E1F700C00000019708F0A9CF8CEE81
:100580008BB922E093E024BB2297888188B98881C7
:1005900082B93FE749EA83E0315040408040E1F7CB
:1005A00000C0000094BBAFE7B9EA33E0A150B0400F
:1005B0003040E1F700C00000C017D10721F7DF91FC
:1005C000CF911F910F91FF90DF90CF9008958DEE06
:1005D0008BB98091120188B982B92FE789EA93E03B
:1005E000215080409040E1F700C000008FEF8BB9B0
:1005F0002FE789EA93E0215080409040E1F700C066
:1006000000000895609B03C00E94D00108950E94DD
:10061000740008958FEF81B984B987B98AB992E0DF
:100620009DB983BB8DE08EB910BA11BA0895EAE77F
:10063000F0E01082ACE7B0E01C928081806880839B
:100640008081876080838C91806C8C9380818064B2
:100650008083808186FDFDCF0895ECE7F0E09081F6
:100660008F6098239083EAE7F0E080818064808344
:10067000808186FF05C0809178009091790008956F
:1006800008950E940A030E9417030E944D000FE084
:100690001DE0C1E0D0E080E00E942D03BC0180E0BD
:1006A00090E00E948B0320E030E040E05FE30E9496
:1006B000EC0320E030E048E452E40E948603882303
:1006C00034F41EB9D0930101C093000105C00EB9E6
:1006D0001092010110920001629904C012B815B87D
:1006E00018B8D9CF639903C00E94E702D4CF809194
:1006F0000001909101018130910519F40E9474006C
:10070000CACF892B41F60E940203C5CF0E94C803BD
:1007100008F481E00895E89409C097FB3EF49095B1
:100720008095709561957F4F8F4F9F4F9923A9F0CA
:10073000F92F96E9BB279395F69587957795679559
:10074000B795F111F8CFFAF4BB0F11F460FF1BC09D
:100750006F5F7F4F8F4F9F4F16C0882311F096E930
:1007600011C0772321F09EE8872F762F05C06623DE
:1007700071F096E8862F70E060E02AF09A95660F97
:10078000771F881FDAF7880F9695879597F9089550
:10079000990F0008550FAA0BE0E8FEEF1616170692
:1007A000E807F907C0F012161306E407F50798F0FA
:1007B000621B730B840B950B39F40A2661F0232B13
:1007C000242B252B21F408950A2609F4A140A6958F
:1007D0008FEF811D811D08950E94FF030C9470040A
:1007E0000E94620438F00E94690420F0952311F001
:1007F0000C9459040C945F0411240C94A4040E94DA
:10080000810470F3959FC1F3950F50E0551F629FCF
:10081000F001729FBB27F00DB11D639FAA27F00D59
:10082000B11DAA1F649F6627B00DA11D661F829F80
:100830002227B00DA11D621F739FB00DA11D621F65
:10084000839FA00D611D221F749F3327A00D611D82
:10085000231F849F600D211D822F762F6A2F112464
:100860009F5750409AF0F1F088234AF0EE0FFF1F97
:10087000BB1F661F771F881F91505040A9F79E3FEE
:10088000510580F00C9459040C94A4045F3FE4F3E8
:10089000983ED4F3869577956795B795F795E79544
:1008A0009F5FC1F7FE2B880F911D9695879597F94D
:1008B000089597F99F6780E870E060E008959FEFE2
:1008C00080EC089500240A941616170618060906E7
:1008D000089500240A9412161306140605060895B6
:1008E000092E0394000C11F4882352F0BB0F40F43E
:1008F000BF2B11F460FF04C06F5F7F4F8F4F9F4F7E
:10090000089557FD9058440F551F59F05F3F71F0FF
:100910004795880F97FB991F61F09F3F79F0879566
:100920000895121613061406551FF2CF4695F1DFEF
:1009300008C0161617061806991FF1CF869571057F
:10094000610508940895E894BB2766277727CB01B3
:0809500097F90895F894FFCF18
:00000001FF
